:020000020000FC
:2000000000400074084008140800683A00000000000000000000000000000000000000001E
:2000080006C00074DEE8001406800074D6A887140080007410888B1400C0007418C89A14C4
:2000100010C00326100000151080010410FFFD360011860000118E40003FFF06DEFFFD0443
:2000180000801084DC000115D0A00405D420040400800044D8800015D1E00444000D883A54
:20002000800B883A01000E44DFC00215001055008080004310801C0C10801C20DFC0021786
:20002800DC000117DEC00304F800283ADEFFFD0400801084DC000115D0A00405D42004046C
:2000300000800044D8800015D1E00444000D883A800B883A01000E44DFC0021500105500FC
:20003800808000431004D1BA1080004CDFC00217DC000117DEC00304F800283ADEFFFD0461
:2000400000801084DC000115D0A00405D420040400800044D8800015D1E00444000D883A2C
:20004800800B883A01000E44DFC0021500105500808000431004D17A1080004CDFC00217A7
:20005000DC000117DEC00304F800283ADEFFFE04DFC00115D160040400800584210000A8FE
:2000580029000045D0A0040500800044D8800015D1E00444000D883A01000E4400106500E0
:20006000DFC00117DEC00204F800283ADEFFFE04DFC00115210000602000161E00BFE004BF
:2000680029403FCC28C001181800141E1080041431803FCC30C001181800141E108001145D
:20007000D0A004450080004400C00EC4D8800015D1E00444000D883AD160040401000E44A0
:20007800D0E0040500106500DFC00117DEC00204F800283A00BFF804003FE906294000989B
:20008000283FEB1E10800214003FE90631800098303FEB1E10800094003FE906DEFFFB042D
:20008800DC8003150080128404800044D1E00444DC000115D0A004052021003A00BFF8046C
:20009000000D883AD160040401000E44DC800015DFC00415D0A00445DC400215001065006B
:20009800018000440140004401000044001018C000800F04D1E00444000D883AD16004043D
:2000A00001000E44DC800015D0A00405D020044500106500800890BA8022907A001014C0F3
:2000A80000801544D0A004058800371E00800044D0A0044500800044D8800015D1E0044462
:2000B000000D883AD160040401000E4400106500008005C4D800001501C00044000D883A56
:2000B800D160054401000E44D0A00545001066808800272600801A840400004400C0158417
:2000C000DC000015D1E00444000D883AD160040401000E44D0E00405D0A0044500106500F4
:2000C800008015C4D0A00405DC00001500800204D1E00444000D883AD160040401000E447B
:2000D000D0A004450010650000801284D0A00405DC00001500BFE004D1E00444000D883AF7
:2000D800D160040401000E44D0A0044500106500DFC00417DC800317DC400217DC000117F5
:2000E000DEC00504F800283A00801044003FC80600800A84003FD806DEFFFE040080004450
:2000E800D8800015D1E00444000D883AD160040401000E44DFC00115D02004050010550024
:2000F000D0A00443108004D81000012600BFDA84DFC00117DEC00204F800283ADEFFFA04E9
:2000F800DC400215DFC00515DCC00415DC800315DC0001152023883A001005C010001026C1
:20010000040000740480007484072C049487368404C0004481C00044800B883ADCC0001554
:20010800000D883A01000E44840000840010650084BFF81E8809883A001021C000800044D7
:20011000DFC00517DCC00417DC800317DC400217DC000117DEC00604F800283ADEFFFA04E1
:20011800DCC00315DC800215DC400115DC000015DFC00515DD00041530BFFFE0DC0006031B
:200120002823883A3025883A3827883A1000071E28C0000381403FCC18803FCC1145883AD3
:20012800108040101000011E00E1C83A21403FCC010000B4000D883A2104000400119940C2
:2001300089400003010000B4000D883A2104000400119F809000052689400043010000B48A
:20013800000D883A2104000400119F8084003FCC048000B40023883A853FFFC49484000430
:200140009C45883A11400003A44D003A9009883A00119F808C40004488803FCC143FF8364E
:20014800DFC00517DD000417DCC00317DC800217DC400117DC000017DEC00604F800283A90
:2001500021003FCC008000B411041835F800283ADEFFFA04DC400115DC400603DFC0051588
:20015800DD000415DCC00315DC800215DC00001588803FCC10002E2630FFFFE02827883AE3
:200160003029883A3825883A1800061E28C0000319403FCC1145883A108040101000011E93
:2001680000E3C83A24003FCC010000B4000D883A800B883A210400040011994099400003A3
:20017000010000B4000D883A2104000400119F80A000052699400043010000B4000D883A27
:200178002104000400119F80010000B4800B883A01800044210400048C403FCC04C000B4CF
:20018000001199400021883A8D3FFFC49CC40004A40B003A9809883A00119CC09407883A89
:20018800840000441880000580803FCC147FF836DFC00517DD000417DCC00317DC80021748
:20019000DC400117DC000017DEC00604F800283AD88000031000032621003FCCD8800015F9
:20019800001045C1F800283ADEFFF904DC0001153C003FCCDC400215DFC00615DD000515E0
:2001A000DCC00415DC80031580800428DC4007171000291E2827883A3029883A8800021E85
:2001A800808002281000241E8C40004424803FCC8C403FCCDC400015D1E005C4A00D883A0B
:2001B000980B883A9009883A00105500808002301000131E843FFE0400800044D0E005C396
:2001B8001404983A10C4B03AD0A005C5D1E005C4A00D883A980B883A9009883ADC40071564
:2001C000DFC00617DD000517DCC00417DC800317DC400217DC000117DEC0070400106501F5
:2001C80000800044D0E006031404983A10C4B03AD0A00605003FED06DFC00617DD00051790
:2001D000DCC00417DC800317DC400217DC000117DEC00704F800283ADEFFF904DC000115EA
:2001D8003C003FCCDC400215DFC00615DD000515DCC00415DC80031580800428DC4007174D
:2001E0001000291E2827883A3029883A8800021E808002281000241E8C40004424803FCC99
:2001E8008C403FCCDC400015D1E005C4A00D883A980B883A9009883A0010550080800230AF
:2001F0001000131E843FFE0400BFFF84D0E005C31404183A10C4703AD0A005C5D1E005C493
:2001F800A00D883A980B883A9009883ADC400715DFC00617DD000517DCC00417DC8003179E
:20020000DC400217DC000117DEC007040010650100BFFF84D0E006031404183A10C4703AB3
:20020800D0A00605003FED06DFC00617DD000517DCC00417DC800317DC400217DC0001171E
:20021000DEC00704F800283ADEFFF304DC000315DC000E03DFC00C15DF000B15DDC00A159B
:20021800DD800915DD400815DD000715DCC00615DC800515DC40041580803FCC1000422633
:2002200035FFFFE028C000032827883A3029883A382B883AB800051E19403FCC1145883A18
:20022800108040101000011E00E1C83A9880004384003FCCD8C00285D88002C50025883AB5
:2002300024403FCC873FFFC4B8003B1E988000031485883AD8800285010000B4000D883ACC
:20023800880B883A2104000400119940D9400283010000B4000D883A2104000400119F80C3
:20024000A0000526D94002C3010000B4000D883A2104000400119F80D8800D1795803FCC7C
:20024800158F883A3880000310803FE010002B26010000B421040004B0803FCCB025883AB5
:2002500014000D2EAD85883A11400003E5800626D8800D17B58000441585883A1080000382
:2002580010803FE01000181E010000B4018000442104000400119F80908000441025883A73
:2002600010803FCC143FD036DFC00C17DF000B17DDC00A17DD800917DD400817DD00071755
:20026800DCC00617DC800517DC400417DC000317DEC00D04F800283A988000431485883A59
:20027000D88002C5003FC406000D883AD900011500119F80D9000117003FD706010000B496
:2002780001800044880B883A21040004D9C0011500119940010000B4014000442104000427
:2002800000119CC0D9C00117AD87883A18C0000339000003A00D883AD9C002441906703A1C
:200288000108303A2088703A008000441906B03AD8800015D94002848809883AD8C0024586
:20029000001045C0003FCC06008000B410840C371080004CF800283A008000B410840837E0
:200298001080004CF800283A00114A81008000B410841C371080004CF800283ADEFFFF0403
:2002A000DFC0001500111BC00010CE400101F4040011910000111C800101F404001191009B
:2002A800DFC00017DEC001040010CF01DEFFFE0401000084DFC00115DC000015001054008F
:2002B0000011078004000074840891041007003A80C005151000031E00110D001005003AB4
:2002B800808006158080061710001826010000440010540000111D801007003A80C007159C
:2002C0001000041E01000044001130801005003A8080081501000084001054000010D000B1
:2002C8000130D414001191000010D000010003F4211090040011910001000044DFC0011720
:2002D000DC000017DEC002040010E081DFC00117DC000017DEC00204F800283ADEFFFC0481
:2002D800008000B4DFC00315DC800215DC400115DC00001514840837018000F40140BEF446
:2002E000010000B431835004297C2004210400049480004C001193800010A7C0008000B420
:2002E80010840C371080004C103FFC2600C00044008000740104E20410C8911500119100CF
:2002F0000009883A0010540000114FC0103FFE1E040000740009883A84089104008000440C
:2002F8008080011500117440808002150010AAC00009883A00105400008000B410840C3740
:2003000000C000741080004C188891151000091E008000B410840C3700C000741080004C35
:2003080018889115103FFA260104E204001191000010AAC000114A8000C000B480800215B3
:200310001C4408378C40004C1000031E0009883A00117440808002158080031710000726E7
:20031800808004171000152600100AC01000171E00800074100895150000040600103980B7
:200320001007003A80C00315103FF5268080021710000826008000B410841C371080004C5C
:20032800103FFC26008000B410841C371080004C103FFC1E8825883A003FCF068809883A0E
:2003300000103DC080800415003FF00600100FC0103FE726947FED268809883A001021C0AD
:20033800003FEA06008000B410041035F800283A00C00044008000B410C41035F800283AE4
:20034000DEFFFA04DC0001150080190404000084D0A00585DC00001500BFFFC4D1E005C4C4
:2003480001800044D160054401000384DFC00515DCC00415DC800315DC400215D0A005C57F
:20035000D02005450010650000801A04DC000015D1E005C401800044D1600544010003840E
:20035800D0A00585D02005C50010650000BFE004DC000015D1E005C401800044D16005440F
:2003600001000384D0A005850010650000BFE404DC000015D1E005C401800044D160054435
:2003680001000384D0A00585043FE0840010650004C00084D4A005C4D4600544DCC0001524
:20037000900F883A01800044880B883A01000384D420058500106500808000841021883A00
:2003780010803FCC10802498103FF41EDFC00517DCC00417DC800317DC400217DC0001170C
:20038000DEC00604F800283ADEFFFA04DC00011504000084DC400215008018842023883AB2
:20038800D1E005C401800044D160054401000384DC000015DFC00515DCC00415DC80031541
:20039000D0A00585D02005450010550000801904D1E005C401800044D160054401000384D6
:20039800DC000015D0A00585D02005450010550000801A04D1E005C401800044D160054464
:2003A00001000384DC000015D0A00585D020054500105500D1E005C401800044D160054472
:2003A8000100038404FFE004DC000015D0200545D4E005850010550004BFE404DC0000155C
:2003B000D1E005C401800044D160054401000384D0200545D4A005850010550088005F2642
:2003B800D1E005C401800044D160054401000384DC000015D0200545D4E005850010550016
:2003C00000BFE084D1E005C401800044D160054401000384DC000015D0A005850010550069
:2003C80000BFE104D1E005C401800044D160054401000384DC000015D0A0058500105500E0
:2003D00000BFE184D1E005C401800044D160054401000384DC000015D0A005850010550058
:2003D80000BFE204D1E005C401800044D160054401000384DC000015D0A0058500105500CF
:2003E00000BFE284D1E005C401800044D160054401000384DC000015D0A005850010550047
:2003E80000BFE304D1E005C401800044D160054401000384DC000015D0A0058500105500BE
:2003F00000BFE384D1E005C401800044D160054401000384DC000015D0A005850010550036
:2003F800D1E005C401800044D160054401000384DC000015D4A005850010550000BFFE048F
:20040000D1E005C401800044D160054401000384DC000015D0A005850010550000801A842D
:20040800D1E005C401800044D160054401000384DC000015D0A005850010550000801B8424
:20041000DC000015D1E005C401800044D160054401000384D0A0058500105500DFC0051780
:20041800DCC00417DC800317DC400217DC000117DEC00604F800283ADEFFFE040080008489
:20042000D8800015D1E005C401800044D160054401000384DFC00115D0200545D0200585A5
:2004280000105500D0A005C3108011181000061ED0A00603108000581000031EDFC00117E1
:20043000DEC00204F800283A00BFD584003FFB06DEFFF904DC400215DC000115044000749F
:2004380004000074DD000515DCC00415DC800315DFC0061584075A848C4767840480004463
:2004400004C00084D52005C48080000310803FD81000141E8080004310803FD81000111E81
:20044800810000C30140FA04001183801009883A0011910084000104847FF31E90001D2610
:200450000005883ADFC00617DD000517DCC00417DC800317DC400217DC000117DEC0070411
:20045800F800283A81C0008401800044800B883A01000384DCC0001500106500A00F883A34
:20046000DCC0001501800044800B883A010003840010550080C00083D0A005C318BFE526EF
:2004680080C000C3D0A0060318BFE2260025883A003FE00600BFD544003FE206008000B4DA
:2004700010041435F800283A00C00044008000B410C41435F800283A00800C04D0A004857D
:2004780000800284DEFFF704D0A004C5008000C4D8800015D9C0014401800044D160048440
:2004800001000D84DC000215DFC00815DD400715DD000615DCC00515DC800415DC4003158B
:2004880000105500D8800183DC000143108022201000311E0021883AD88001C310801958C2
:20049000100001260021883A00800E04D0A0048500800244D0A004C50023883A04800044FB
:20049800D4E00504D5200484057FEA84980F883A01800044A00B883A01000D84DC8000157A
:2004A000D4600505001065000100014400119100980F883ADC80001501800044A00B883A95
:2004A80001000D84D560050500105500D0A00503144001260021883A010001440011910040
:2004B0008C40004488800298103FE81E80000C260005883ADFC00817DD400717DD000617B9
:2004B800DCC00517DC800417DC400317DC000217DEC00904F800283A8021003A003FCE06D7
:2004C00000BFD804003FF306DEFFF104D0A00504DD000915DC800715DC000515048000749D
:2004C8000400007405000074D8800115D0A00484DD400A15DCC00815DC400615DFC00E15CF
:2004D000DF000D15DDC00C15DD800B152027883A8407B64494880144054000440023883A73
:2004D800A5076804D880021585800003B2403FCC48803FD810001B1E8080004310803FD866
:2004E0001000181E008000748885883A11076803014019048C400044001183801009883A13
:2004E80000119100840000C484BFEF1EA8003C260005883ADFC00E17DF000D17DDC00C1762
:2004F000DD800B17DD400A17DD000917DCC00817DC800717DC400617DC000517DEC00F041B
:2004F800F800283A85C00083A479883AE00F883ADDC0001501800044800B883A01000D84DC
:20050000DA40031500106500DA40031798000526E007883A4A4000580039883A02C00044B1
:20050800E5C002168DE3883A003FDE0680800043D5A00485E085883AD0A004C54800081EB2
:2005100010803FCC108000D81000051E18800003D0A00505E700004418C00044003FF00604
:20051800D9C00117D9400217DAC0001501000D8401800044DA400415D8C003150010550092
:20052000D8C00317D0A00503DA4004171900000302C0004420BFEF26002B883A003FED0627
:2005280000BFD7C4003FC306DEFFFD0400BFF684DC000115D0A00405D4200404008000440F
:20053000D8800015D1E00444000D883A800B883A01001C04DFC002150010550080800043AA
:200538001004D13A1080005C1080004CDFC00217DC000117DEC00304F800283ADEFFFE0432
:2005400000800044D8800015D1E00444000D883AD160040401001C04DFC00115D02004059A
:2005480000105500D0A0044310C03FCC18C03FE01800071E10C001CCD0E004451080018CB5
:200550001000051EDFC00117DEC00204F800283A00BFDD04003FFB0600BFDCC4003FF90626
:20055800DEFFF404DCC005152027883ADC800415982490FADC00021504000044008007C4AE
:20056000DD000615DC400315053FF984DC000015D1E00444000D883A01001C042823883AA7
:20056800D1600404DFC00B1594E5883AD0A00445DF000A15DDC00915DD800815DD4007151B
:20057000D520040504C0007400106500008001049CC80144D88000159C8F883A000D883A69
:20057800D160000401001C040010650091C00104DC00001599CF883A000D883AD1600084A3
:2005800001001C040010650000BFFD84D0A00405DC00001500800084D1E00444000D883A4F
:20058800D160040401001C04D0A0044500106500008002C4DC000015D1E00444000D883ACC
:20059000D160040401001C04D5200405D0A004450400FA440010650000114A8010000E2664
:200598000104E2048C400058001191008800271ED4E00004D7200104040000440029883ADE
:2005A000D1E00444D5A0040405400044A4AF883A0023883A00001706843FFFC480001C26DD
:2005A8000100004400119100003FEB069880000301001C04DD4000158885883A000D883A10
:2005B000B00B883AD0A00405D9C00115001055008DC7883A008000741885883AD120044380
:2005B80010880143D9C00117208001260021883A8C4000449880004388BFEC169CC0008458
:2005C000E4C003268D29883A003FE006040000448005883ADFC00B17DF000A17DDC00917A4
:2005C800DD800817DD400717DD000617DCC00517DC800417DC400317DC000217DEC00C045A
:2005D000F800283ADEFFF704DC00021500BFF98404000044DCC00515D0A00405DC00001542
:2005D800008007C4D1E00444000D883AD16004042027883A01001C04DFC00815DD000615D9
:2005E000DC800415DC400315D0A00445DD4007150010650000BFFC44D0A00405DC00001582
:2005E80000BFED44D1E00444000D883AD160040401001C04040000740500007404800074F8
:2005F000D0A00445840880C400106500A50886C40023883A94880A448540004388803B4418
:2005F8001485883A944F883A800B883ADD400115D8800015000D883A01001C0484000084FE
:20060000001084808D63883A853FF31E014000449809883ADFC00817DD400717DD00061764
:20060800DCC00517DC800417DC400317DC000217DEC00904001156010005883A2000072651
:2006100020C0004C2008D07A180001261145883A294B883A203FFA1EF800283AF800283A74
:20061800DEFFFF040100007401400074DFC0001521088704294889042140042601800074D2
:2006200031888904310DC83A0011AD400100007401400074210008042940080421400426DF
:200628000180007431800804310DC83A0011AD40010000740140007421072C0429472C04A0
:20063000214004260180007431888704310DC83A0011AD400011AC40DFC00017DEC0010452
:200638000011AC81DEFFFF040009883ADFC000150011914000119340D1A00717D160081760
:20064000D1200917DFC00017DEC001040010B5C10011A341DEFFFF04DFC000150011ACC0A4
:20064800008000441001703ADFC00017DEC00104F800283AF800283ADEFFFE04DC00001536
:200650002021883A2809883A300A90BADFC00115298B883A0011BF0010BFFFC480000235CC
:2006580000C0004480C0043510C03FCC80C000351004D23A10803FCC808001350080200420
:2006600080800235DFC00117DC000017DEC00204F800283A280A907A3180004C298B883AEC
:200668002140033520C004040080240420800435188000371080008C103FFD1E2080043740
:200670001004D1FA1080004CF800283A20C004042800072600801A042080043518800037D2
:200678001080008C103FFD1E20800337F800283A00800804003FF80629403FCC21400335D2
:2006800020C00404300009260080140420800435188000371080008C103FFD1E2080043772
:200688001004D1FA1080004CF800283A00800404003FF606DEFFFE04008666B4DC0000150A
:20069000DFC0011510A666042021883A1100182E014666B4296666440011BF0000E000349D
:200698001009883A18FFFFC40005883A18FFFFC4183FFE1E10800044113FFC16017999B47C
:2006A000295999C4001183801405883A100690BA1885883A10BFFFC4103FFE1E0005883AE9
:2006A800DFC00117DC000017DEC00204F800283A200490BA1105883A10BFFFC400BFFE16DF
:2006B000003FF606F800283AF800283A000170FAF800283A2005883A0007883A30C0011EB7
:2006B800F800283A28CF883A39C0000310C9883A18C0004421C00005003FF80620001A16E9
:2006C000000F883A2800020E014BC83A39C0005C200D883A00C000442900092E008008048F
:2006C80000C000440000010610001226294B883A10BFFFC418C7883A293FFB3618000D2672
:2006D0000005883A31400236314DC83A10C4B03A1806D07A280AD07A183FFA1E38000126AA
:2006D8000085C83AF800283A0109C83A01C00044003FE4060005883A003FF8062000171696
:2006E000000F883A2005883A2800010E014BC83A00C000442900092E0180080400C00044C8
:2006E8000000010630001026294B883A31BFFFC418C7883A293FFB3618000B261806D07AB1
:2006F000114001361145C83A280AD07A183FFB1E380001260085C83AF800283A0109C83AD2
:2006F80001C00044003FE7062005883A003FF806200D883A2900152E280014160080080454
:2007000000C000440000020610000E2628000416294B883A10BFFFC418C7883A293FFA3646
:20070800180008260005883A31400236314DC83A10C4B03A1806D07A280AD07A183FFA1E8A
:20071000F800283A0005883AF800283A00C00044003FF4062005883A2900132E2800121670
:200718000180080400C000440000020630000C2628000416294B883A31BFFFC418C7883AFA
:20072000293FFA36180006261806D07A114001361145C83A280AD07A183FFB1EF800283A4F
:200728002005883AF800283A00C00044003FF60603981041309CE09AA4A2619D08A4A4A3C8
:2007300000F9D0E03216201506AF803B000160BA00031802860C030A00A80B140000002055
:2007380000000000000000080000000000080000C08D000000000020000000010000C00D56
:2007400000000001000D000000880001B31E4D19C9040008D30164094D1D00000008B31A76
:2007480000870008B31E231A180400088F010908A31D000100075D1B00880008451FBC1827
:20075000670300082801710B2B1E00000008D519008700085C1FA419E9020008FD00CA09A9
:20075800651E000100079B1A02000008FFFF010002000A001600000018002710FFFF0306C0
:2007600018000A00200013070C002900600001010600068008001000040011000000478006
:2007680000000501180500000400030072010C01F101019320002800400000000030040481
:200770004068112086070CDD5A4028586060009B101010101B27865560001800184800036D
:2007780000283250804808701407700131124431040A0A7F030A0C04A6A6A6060C02200C4D
:2007800030401028061418040C4C004000042026200404280008000042FF0000132C044677
:200788007A7A88100009000200B0B0885C5C8801001919558484000000000066048007FF12
:2007900005B01C380204005000060101020801011648FF180C1004F100CF301003400200FC
:2007980008C0073F040200BF08020204FF1F000210680F001016461004002A32FFFFC31802
:2007A000080116FF10150000DFFC4115200C083F02080840020C01010E1D0101220F0C0C7A
:2007A8000505060A02060A070703000000000206060907030A0604040B0B0D192823220E04
:2007B0002613272916333233303130142123261527360523DF242628010301010101FFFFF2
:2007B8000001010001000101FF010001020301FF020E0303030112031530011E0118300139
:2007C000300120300631012201053301330808330436010701023601360105360C36040753
:2007C800010E36013601103617360312021C360336013136413604330246360135014A3614
:2007D000083504000D0037023702183714370112041E37013703243736370D28033A370196
:2007D80037013E37583701550367370837026C376137016A0166370337016B37A03705721E
:2007E0000160370A37016F37083810AA0313380A380220383038022A0236380138014138DE
:2007E800083F014602004001400105400D40010B01114001400113401D40011B1020400170
:2007F00040011F400043013401004503460103451F480101013748014B0250480D4B0100D1
:2007F80006004D0159030050005E01010118500150011A50015E011C05805701580B8657C3
:2008000000013E00AC0667010000630006670000006300AC670000006300AC060000000024
:2008080000AC06670000006316700800C0C0B0900655C0C08406060600002410C4003A144F
:20081000060010070000000000000001C407FB107D0000011000000001C407FB007D000002
:20081800F510000000004C1600001900342FEB0019000000008000000040000000400000D9
:200820000040008000400000000000000000000000000000000000000000000000000000B8
:200828000000000000000000000000000000000000000000000000000000000000000000B0
:200830000000000000000000000000000000000000000000000000000000000002000000A6
:20083800010000013190000000010000000000009000000101000031000000000000010018
:200840000000319000000001000000000031900000000100801D0000FFFFFFFFFFFFFFFF7F
:200848001F1F1F1FFF3F7FFFFFFF3FFFFFFFFFFFFFFFFFFFFFFFFFFFFFFFFF3FFFFFFFFFF0
:200850003FFFFFFFFFFFFFFFFFFFFFFFFF3FFFFFFFFFFFFFFFFFFFFFFFFF3FFFFFFFFFFFE8
:20085800BFFFFFFFFFFFFFFFFFFFFFFFFFFFFFFFFFFFFFFFFFFFFFFF0F0FFFFFFFFFFFFFC0
:20086000FFFFFFFFFFFFFFFFFFFFFFFFFFFFFFFFFFFF0F0FFFFFFFFFFFFFFFFFFFFFFFFF78
:20086800FFFFFFFF0FFFFFFFFFFFFFFFFFFFFFFFFFFFFFFFFFFFFFFFFFFFFFFFFFFF0FFF70
:20087000FFFFFFFFFFFFFFFFFFFFFFFFFFFFFF02FFFFFFFFFFFFFFFFFF0FFFFFFFFFFFFF75
:20087800FFFFFFFF0FFFFFFFFFFFFFFFFFFFFFFFFFFFFFFFFFFFFF0FFFFFFFFFFFFFFFFF60
:2008800006FF0FFF2D101B0198306133FF01F2422F0D1F014F0D3F0D0001FF0D000000004B
:20088800000000000151044B000210A00000000000000000000000000000000000000000FD
:20089000000000000000000000000000000000000000000000000000000000000000000048
:20089800000000000000000000000000000000000000000000000000000000000000000040
:2008A000000000000000000000000000000000000000000000000000000000000000000038
:2008A800000000000000000000000000000000000000000000000000000000000000000030
:00000001FF
